:10000000BBC00000D5C00000D3C00000D1C00000BC
:10001000CFC00000CDC00000CBC00000C9C00000B0
:10002000C7C00000C5C00000C3C00000C1C00000C0
:10003000BFC0000075C20000A0C70000B9C000002A
:10004000B7C00000B5C00000B3C00000B1C00000E0
:10005000AFC00000ADC00000ABC00000A9C00000F0
:10006000A7C0000022C70000A3C00000A1C000007C
:10007000AFC600009DC000009BC0000099C00000FA
:1000800097C0000095C0000093C0000091C0000020
:100090008FC000008DC000008BC0000089C0000030
:1000A00087C0000085C0000083C0000081C0000040
:1000B0007FC000007DC0000056C2000079C0000073
:1000C00077C0000075C0000073C0000071C0000060
:1000D0006FC000006DC000006BC0000069C0000070
:1000E00067C0000065C0000063C0000061C0000080
:1000F0005FC000005DC000005BC0000059C0000090
:1001000057C0000055C0000053C0000051C000009F
:100110004FC000004DC000004BC0000049C00000AF
:1001200047C0000045C0000043C0000041C00000BF
:100130003FC000003DC000003BC0000039C00000CF
:1001400037C0000035C0000033C0000031C00000DF
:100150002FC000002DC000002BC0000029C00000EF
:1001600027C0000025C0000023C0000021C00000FF
:100170001FC000001DC0000011241FBECFEFCDBF67
:10018000DFE2DEBF10E2A0E0B0E2E8E0F2E102C0B0
:1001900005900D92AE38B107D9F720E2AEE8B0E293
:1001A00001C01D92A03DB207E1F73AD50C940209B7
:1001B00027CF9FB7F894E82FF0E0E059FF4F609504
:1001C0008081682360839FBF08959FB7F894E82FCC
:1001D000F0E0E059FF4F8081682B60839FBF089556
:1001E00008958115924059F480918E2091E0980FE6
:1001F00090938E20811103C062E081E0DACF0895F0
:100200008115924051F480918E20815080938E20F0
:10021000811103C062E081E0D8CF08951F93CF938E
:10022000DF93EC011FB7F894DCDF8881816088835D
:100230001FBF8FB7F894EFE9F0E290819F5F908342
:100240008FBFDF91CF911F910895DF92EF92FF92C0
:100250000F931F93CF93DF93EC018B01C11582E0C5
:10026000D80759F561E270E082E0B3D0E82EF12CB6
:1002700060E270E082E0ADD0FE2CEE24E82ADFB62A
:10028000F894CE01AEDF288182E08883EC86FD867B
:10029000F80185819681888F998F82818A838481F4
:1002A0008C8383818B8381818983822F817090816C
:1002B000892B8883CE01A4DFDFBEDF91CF911F9110
:1002C0000F91FF90EF90DF900895FF920F931F938F
:1002D000CF93DF93EC018B01FFB6F89482DF888126
:1002E000807CF8018083888D998D858396838A81AF
:1002F00082838C8184838B81838389818183CE01F6
:100300007FDFFFBEDF91CF911F910F91FF90089586
:10031000DF92EF92FF920F931F93CF93DF937C01B5
:100320008A01862F837021F46695669582E001C06C
:1003300080E060FF8F5FE701A09698E0899FC00D85
:10034000D11D1124DFB6F894C7014BDFF80180817D
:10035000888382818A8381818983C70151DFDFBEDF
:10036000DF91CF911F910F91FF90EF90DF90089553
:10037000DF92EF92FF920F931F93CF93DF937C0155
:10038000EA01862F837021F46695669582E001C0AC
:1003900080E060FF8F5F8701005E1F4F98E0899FBC
:1003A000000D111D1124DFB6F894C7011ADFF80102
:1003B0008081888382818A8381818983C70120DF4C
:1003C000DFBEDF91CF911F910F91FF90EF90DF90F3
:1003D00008954091CA01E62FF72F8093CA018491B6
:1003E0004093CA010895CF93DF93E0918F20F0915D
:1003F0009020848183FF08C08860848383E08383A6
:1004000086EF8093992089C0982F947131F083E012
:1004100083838FEF8093992080C086FF45C0A09191
:100420009120B091922080919320909194201496E5
:100430002D913C911597821793076CF49C012F5FC7
:100440003F4F2093932030939420A80FB91F11960B
:100450008C91878362C08091952090919620189608
:100460002D913C91199782179307C8F420919720FA
:10047000222321F08681816086834FC016962D91BC
:100480003C911797AC014F5F5F4F4093952050937D
:100490009620D901A80FB91F8C9187833EC083E0B5
:1004A00083831092992039C08823A4F5A0919120CC
:1004B000B0919220809195209091962018962D9140
:1004C0003C91199782179307F8F416964D915C9119
:1004D00017979C012F5F3F4F2093952030939620D4
:1004E0006781EA01C80FD91F688318968D919C9186
:1004F00019972817390718F482E083830EC087E024
:1005000083831092992009C083E0838389EF8093CD
:10051000992003C08BEF80939920DF91CF910895AC
:100520001F920F920FB60F9211242F933F934F9368
:100530005F936F937F938F939F93AF93BF93EF934B
:10054000FF9351DFFF91EF91BF91AF919F918F91F9
:100550007F916F915F914F913F912F910F900FBEBF
:100560000F901F9018951F920F920FB60F921124A3
:100570002F933F934F935F936F937F938F939F93AB
:10058000AF93BF93EF93FF932EDFFF91EF91BF9156
:10059000AF919F918F917F916F915F914F913F911B
:1005A0002F910F900FBE0F901F901895FC01DB014B
:1005B00014968C91858388E7818381E084831092EF
:1005C000982010929920E0EAF0E082818160828395
:1005D000789480E00895009709F453C0611571057F
:1005E00009F451C0FB0132852091982002C03111DD
:1005F0004CC02111FCCF2FB7F89431E030939820F4
:1006000030E8309399202FBF80938F2090939020D3
:1006100060939120709392201092932010929420D6
:10062000109295201092962040939720FB012081F4
:10063000522F550F24813581232B11F4411103C012
:10064000FC01568303C05160FC015683E9E9F0E2E6
:1006500080818038E9F3E0918F20F09190208481AF
:100660008370813049F0AFE8B0E2ED91FC911197D1
:10067000848183708130C9F78091992010929820ED
:10068000089588EF089588EF089586EF08950097FC
:1006900031F4E4E2F6E0808181608083089501977F
:1006A00029F4E4E2F6E08081826080830895009777
:1006B00031F4E4E2F6E080818E7F80830895019733
:1006C00029F4E4E2F6E080818D7F80830895FC01C7
:1006D0008485DF01A80FB11D13968C9194859F5FCF
:1006E000937094870895FC0183858F5F8370948550
:1006F000A081B1812C91891749F09385DF01A90F61
:10070000B11D13962C93838781E0089580E00895AE
:10071000E0EAF8E0918195FFFDCF8093A00808956D
:10072000CF93DF93EC018881882329F02196F0DFB5
:1007300089918111FCCFDF91CF910895E0EBF8E032
:10074000918195FFFDCF8093B0080895CF93DF93FB
:10075000EC018881882329F02196F0DF89918111AD
:10076000FCCFDF91CF910895CF93DF93CDB7DEB764
:100770002B97CDBFDEBFFE0131969BE0DF011D92BE
:100780009A95E9F798E699838A8381E090E08D83D2
:100790009E836F83788749875A8741E0BE016F5FE8
:1007A0007F4F80E894E017DF8111F7CF80E090E081
:1007B0002B96CDBFDEBFDF91CF910895CF93DF930E
:1007C000CDB7DEB72B97CDBFDEBFFE0131969BE0E4
:1007D000DF011D929A95E9F798E699838A8381E073
:1007E00090E08D839E836F83788749875A8740E0A6
:1007F000BE016F5F7F4F80E894E0EDDE8111F7CF9F
:1008000080E090E02B96CDBFDEBFDF91CF910895C1
:10081000CF93DF931F92CDB7DEB7698341E050E0FD
:10082000BE016F5F7F4FCADF0F90DF91CF910895B8
:10083000CF93DF93D82FC62F60E08BE690E0E8DF00
:1008400061E08AE190E0E4DF64E089E190E0E0DFEC
:10085000DD0FDD0FDD0F6D2F607F8BE190E0D8DFC6
:10086000CC0FCC0FCC0F6C2F68718CE190E0D0DFF7
:10087000DF91CF91089582E080935000E0E5F0E0B1
:10088000818181FFFDCF88ED84BF81E080934000AE
:10089000E0E5F0E080818E7F80830895E0E4F6E07B
:1008A00088E0818384E08283E0EAF8E0E093A62098
:1008B000F093A72081E08093A8201092B22010929C
:1008C000B1201092B4201092B32083E385838381FA
:1008D0008F7C806183838FEC868317828481806123
:1008E0008483848188608483E0EAF0E0828181608F
:1008F00082830895E0E4F6E080E8818380E48283E7
:10090000E0EBF8E0E093B820F093B92081E0809329
:10091000BA201092C4201092C3201092C6201092C8
:10092000C52083E3858383818F7C806183838FEC03
:100930008683178284818061848384818860848334
:10094000E0EAF0E08281816082830895E0E0F8E0EF
:1009500080E09AEF86A397A38081807F8460808364
:100960000895CF93DF9380E090E0A1DE81E090E0F6
:100970009EDEC5E0D0E080E090E089DE2FEF83ECE2
:1009800099E0215080409040E1F700C0000080E0F5
:1009900090E08DDE2FEF83EC99E021508040904075
:1009A000E1F700C000002197209729F7DF91CF9150
:1009B00008950F931F93CF93DF93CDB7DEB7299799
:1009C000CDBFDEBF8E010F5F1F4F89E0F80111928E
:1009D0008A95E9F780E49CE9A0E0B0E089839A83F6
:1009E000AB83BC8388E6898784E190E0A0E0B0E037
:1009F0008D839E83AF83B88760E483E0DADBB80140
:100A000080E894E0D3DD2996CDBFDEBFDF91CF91A2
:100A10001F910F910895E4E6F6E010828FE1A0E6C1
:100A2000B6E011968C93108283E0E0E2F6E08183D9
:100A3000E4E2F6E080818C7F80830895CF93DF939A
:100A4000CDB7DEB72A97CDBFDEBFCADB14DFE3DF49
:100A500088DFBE016F5F7F4F80E092E036DCAE0141
:100A6000485F5F4F61E080E092E082DC8A819B8199
:100A70009F7C90629B83817E8A831C8282E08D832F
:100A800081E0888788E08987BE016F5F7F4F80E0C3
:100A900092E0DBDBAE01485F5F4F61E080E092E017
:100AA00037DC80E092E0BADB8FB7F894E0E0F2E068
:100AB0009081946090838FBFF1DE1CDF109224063A
:100AC00087E0E0EAF0E0828374DF60E083E0B0DE9C
:100AD0003DDF78942A96CDBFDEBFDF91CF91089598
:100AE000E0E0F8E010A211A286818C7F826086830C
:100AF0000895E4E6F6E08081816080832FEF3BEB90
:100B00008FE993E02150304080409040D9F700C0F9
:100B100000008081826080832FEF37E689E899E0CA
:100B20002150304080409040D9F700C000008081C3
:100B3000846080832FEF37E689E899E021503040C8
:100B400080409040D9F700C0000080818860808399
:100B500008950F931F93CF93DF9300D0CDB7DEB7E7
:100B60008FB7F894E0E0F2E09081946090838FBFBB
:100B7000868180FFFDCFE0E0F2E081E0868304A182
:100B800015A14EE050E0BE016F5F7F4F8BE390E018
:100B9000EBDD83E3BDDD85E3BBDDE981FA818185A2
:100BA000B7DDE981FA818085B3DDE981FA8183854A
:100BB000AFDDE981FA818285ABDDE981FA81858546
:100BC000A7DDE981FA818485A3DD8EE7A1DDE981D6
:100BD000FA8181819DDDE981FA81808199DDE98158
:100BE000FA81838195DDE981FA81828191DDE98154
:100BF000FA8185818DDDE981FA81848189DD8EE745
:100C000087DD802F85DD812F83DD83E581DD8AE52A
:100C10007FDD0F900F90DF91CF911F910F9108957D
:100C20000DDF84E190E0C7D18093C9209093CA2062
:100C300084E190E0C0D18093B6209093B720C4E6C1
:100C4000D6E08091A520882309F45AC08091B52070
:100C50008E3031F418821092B52086E090E276DD75
:100C60008091B520853031F484E190E26FDD1092FF
:100C7000B52022C08230B1F481E290E251DD2FEF45
:100C80003BE48DE1215030408040E1F700C000009E
:100C900089E290E25BDD86E390E242DD21DF1092A3
:100CA000B52017C08091B5208A3031F48EE390E2F0
:100CB0004DDD1092B52022C08091B520833049F4DB
:100CC00088818061888389E490E240DD1092B520BC
:100CD00015C08091B520813089F41092B52084E54B
:100CE00090E234DD9FEF2FEC32E183E19150204020
:100CF00030408040D9F700C00000FBDE1092A520F4
:100D000080919C2090919D20019709F09ACF21DF3E
:100D100010929C2010929D2094CFFB01DC0103C017
:100D20009D91891306C081918111FACF21E030E0B5
:100D300002C020E030E081E090E02130310511F088
:100D400080E090E00895CF93DF93EC016EE570E2D0
:100D5000E4DF019731F161E270E2CE01DEDF01975D
:100D600019F166E670E2CE01D8DF019701F164E780
:100D700070E2CE01D2DF0197E9F06DE770E2CE01BB
:100D8000CCDF0197D1F063E870E2CE01C6DF0197B6
:100D9000B9F069E870E2CE01C0DF8130910599F4C5
:100DA00014C085E090E011C082E090E00EC087E0C2
:100DB00090E00BC08EE090E008C08AE090E005C0B3
:100DC00083E090E002C084E190E0DF91CF9108954C
:100DD0001F920F920FB60F9211242F933F934F93B0
:100DE0005F936F937F938F939F93AF93BF93EF9393
:100DF000FF93F894E4E2F6E080818260808388EBE0
:100E000090E271DC9091C3208091C4209817B1F1D9
:100E100088EB90E25CDC8093C720E091C920F091E0
:100E2000CA209F012F5F3F4F2093C9203093CA20D3
:100E3000808380919A2090919B20019680939A20A4
:100E400090939B208091C720811118C020919A20F7
:100E500030919B208091C9209091CA20821B930BD6
:100E60008093C9209093CA2010929A2010929B20C0
:100E700021E02093A52067DF8093B520E4E2F6E02F
:100E800080818D7F80837894FF91EF91BF91AF91A6
:100E90009F918F917F916F915F914F913F912F9192
:100EA0000F900FBE0F901F9018951F920F920FB6C4
:100EB0000F9211242F933F934F935F936F937F93E0
:100EC0008F939F93AF93BF93EF93FF93F894E4E2D4
:100ED000F6E080818260808386EA90E204DC909173
:100EE000B1208091B220981789F186EA90E2EFDB79
:100EF0008093C820E091B620F091B7209F012F5F2A
:100F00003F4F2093B6203093B720808380919A2062
:100F100090919B20019680939A2090939B208091A2
:100F2000C820811113C020919A2030919B2080917C
:100F3000B6209091B720821B930B8093B62090939C
:100F4000B72010929A2010929B2000DCE4E2F6E099
:100F500080818D7F80837894FF91EF91BF91AF91D5
:100F60009F918F917F916F915F914F913F912F91C1
:100F70000F900FBE0F901F9018951F920F920FB6F3
:100F80000F9211248F939F93EF93FF93F894E0E0D7
:100F9000F8E010A211A281E090E080939C20909351
:100FA0009D207894FF91EF919F918F910F900FBEAC
:100FB0000F901F901895CF93DF938230910510F416
:100FC00082E090E0E091CE20F091CF2020E030E070
:100FD000A0E0B0E0309739F14081518148175907BE
:100FE000B8F04817590771F482819381109729F05E
:100FF00012968D939C9313972CC08093CE20909340
:10100000CF2027C02115310531F04217530718F0C2
:10101000A901DB0101C0EF019A01BD01DF010280DE
:10102000F381E02DD7CF21153105F9F0281B390BBD
:101030002430310580F48A819B816115710521F08E
:10104000FB018283938304C08093CE209093CF20B2
:10105000FE01329644C0FE01E20FF31F819391938B
:1010600022503109288339833AC02091CC20309115
:10107000CD20232B41F42091022030910320209396
:10108000CC203093CD2020910020309101202115DB
:10109000310541F42DB73EB7409104205091052011
:1010A000241B350BE091CC20F091CD20E217F30703
:1010B000A0F42E1B3F0B2817390778F0AC014E5FC8
:1010C0005F4F2417350748F04E0F5F1F4093CC2029
:1010D0005093CD208193919302C0E0E0F0E0CF01E6
:1010E000DF91CF910895CF93DF93009709F487C0E4
:1010F000FC01329712821382C091CE20D091CF2072
:10110000209781F420813181280F391F8091CC20D4
:101110009091CD208217930779F5E093CC20F0933E
:10112000CD206DC0DE0120E030E0AE17BF0750F4E7
:1011300012964D915C9113979D014115510509F14E
:10114000DA01F3CFA283B38340815181840F951FCD
:101150008A179B0771F48D919C911197840F951FAD
:1011600002968083918312968D919C91139782832E
:1011700093832115310529F4E093CE20F093CF20FD
:101180003EC0D9011296ED93FC9313974D915D915A
:10119000A40FB51FEA17FB0779F480819181840FB2
:1011A000951F0296D9018D939C931197828193810B
:1011B00012968D939C931397E0E0F0E08A819B81D7
:1011C000009719F0FE01EC01F9CFCE0102962881BB
:1011D0003981820F931F2091CC203091CD20281788
:1011E000390769F4309729F41092CE201092CF205D
:1011F00002C012821382C093CC20D093CD20DF9105
:08120000CF910895F894FFCF8F
:101208000000D020200041424F52544152434845EB
:10121800434B0000544553544254434845434B0004
:1012280000544553545246000054455354524643C3
:101238004845434B0000494E4943494F0000444943
:10124800455A434845434B0000545245534348458B
:10125800434B0000554E4F434845434B000054450F
:10126800535442540000544553545246434845434E
:101278004B31000041424F5254415200004449450D
:0E1288005A0000545245530000554E4F0000CE
:00000001FF
